:020000040000FA
:10000000000001308A004E29FD0003088301E00052
:100010000408E1000A08E2008A017108E5000B1DEE
:10002000D42864308312031381000B11A408031930
:100030001C288614A4012128831203138610A4010E
:10004000A40A0530831203132102031C292864002B
:100050003428831603175D085C04031934286400F0
:10006000FF30DC07031CDD0383120313A608031D06
:10007000A603003083120313230265300319220202
:10008000031C7E28A201A301A508031DA50383125A
:1000900003171708033A031D52280A168A15D4219C
:1000A0000A128A11831203171708043A031D6028E5
:1000B0000A168A15D4210A168A15B0210A128A1145
:1000C00083120317A00803196D28A00A9730200295
:1000D000031C6D28A00103130711831603175A0888
:1000E000590403197728FF30D907031CDA03831654
:1000F0000317970803198328970383288312031390
:10010000A20A0319A30A83120313B20803198F2842
:10011000B20AC9303202031C8F28C830B2008312E1
:100120000313210B98280A168A1563220A128A11D2
:1001300083120313AD080319BA28AF080319A228C4
:10014000AF03D42883120313861AA8280230B00004
:1001500083120313061AAE280330B0008312031370
:100160000618B428B001B00A83120313AD01AE0122
:10017000AE0AD42883120313AE080319D428B20898
:10018000031DC428B201B20A83120313861A061E85
:10019000D428061CD428AE01AD01060886000B1039
:1001A0008B158B100B16B20183120313861E061AD1
:1001B000DA28E128861E0618DE28E128061C061A21
:1001C000EE28AE01AD01AF01B001060886000B10AC
:1001D0008B108B150B16B101B10A0429831203137E
:1001E000B108031905298B110B120618861E012967
:1001F000061E0129B101060886000B108B108B1515
:100200000B1683120313B001B201831203130B1CEC
:100210001729AD080B10031D15298B118312031329
:10022000AD01AD0AAE010330AF00831203138B1C86
:100230002729AD088B10031D25290B1283120313E8
:10024000AD01AD0AAE010330AF00831203130C1CE5
:100250003829EC308F0077308E000C10831603178E
:100260009508031938290A168A117E200A128A1164
:10027000831203138C1E41290A168A111D200A12AB
:100280008A11031383126508F10061088400620873
:100290008A0060088300FD0E7D0E09002030840076
:1002A000603061218317103084002230612190304A
:1002B0008400DE3061210A128A15B72F04068001FE
:1002C000840A0406031D5E296400003483120313AC
:1002D000E300E41B7429641B7C2964088A0063081A
:1002E000E30A0319E40A820083136418831763087E
:1002F000E30A840000080800FF3F8301B801B80A40
:10030000B701B70A03179001900A03133008023AA5
:1003100003198E293008033A031D9829370B9329B6
:100320000230B7009529B701B70AB001B801B80A81
:10033000B8080319C529370BAC29831603175308CE
:1003400083120313C000C1010A168A15E5240A129C
:100350008A11CF01CF0AB8298316031754088312D4
:100360000313C000C1010A168A15E5240230CF002C
:1003700004300A168A1197251930CF0003300A1667
:100380008A1197250A128A11B801300BC829D5297C
:10039000E830CE000330CF000A30D000D1010A1679
:1003A0008A11FB260A128A1185290317900103136B
:1003B000080083160317510883120313B70083162E
:1003C0000317520883120313B8003708C000380817
:1003D000C1000A168A15E5240A128A113008023A69
:1003E0000319F829861A2C2A3208C83A031D2C2A28
:1003F000B00101303802F530031937020318861AAC
:10040000162A3208C83A031D162A3230B7070318D5
:10041000B80AE830CE000330CF000A30D000D10156
:100420000A168A11FB260A128A11192AB70A031919
:10043000B80A27303802103003193702031C232A68
:10044000B701B70AB8013708C0003808C1000A165A
:100450008A15E5240A128A113008033A0319362A4C
:10046000061A502A3208C83A031D502AB00100303B
:1004700038020230031937020318432A0F30B7003D
:100480002730B800472AB7080319B803B70337085D
:10049000C0003808C1000A168A15E5240A128A111C
:1004A000300BCB2A370883160317D10083120313AE
:1004B000380883160317D200831203133808F2009A
:1004C0003708F1000310F20CF10C710883160317C2
:1004D000C3007208C400831203133808F2003708FF
:1004E000F1000310F20CF10C0310F20CF10C710886
:1004F00083160317C1007208C20083120313370862
:10050000BD003808BE001A300A168A152C21831641
:100510000317410883120313BD0083160317420813
:1005200083120313BE000C300A168A152C21831681
:100530000317430883120313BD00831603174408EF
:1005400083120313BE000E300A168A152C212030A8
:1005500083160317C7000330C8008312031337083C
:1005600083160317C9008312031338088316031771
:10057000CA00203083120313BD000330BE001230C6
:100580000A168A152C213708BD003808BE00143021
:100590000A168A152C293208C83A031DDC2A643051
:1005A000CE00CF010530D000D1010A168A11FB26FA
:1005B0000A128A11C501E82AE830CE000330CF00C4
:1005C0000A30D000D1010A168A11FB26C501C50ADE
:1005D00005300A168A11A5240A128A11EE290A305A
:1005E0008301B700B801FE2AE830CE000330CF0007
:1005F0001430D000D1010A168A11FB260A168A117E
:100600001B250A128A11300BF42A08008301B70156
:10061000B708031D242B0A168A119E2203171108FE
:100620000313C000031712080313C1000A168A152A
:10063000E5240A128A11031711080313B8000317DF
:1006400012080313B9002D2B3808C0003908C10067
:100650000A168A15E5240A128A113008023A03198B
:10066000372B861A6D2B3208C83A031D6D2BB0014B
:1006700001303902F530031938020318861A552B58
:100680003208C83A031D552B3230B8070318B90A8F
:10069000E830CE000330CF000A30D000D1010A1676
:1006A0008A11FB260A128A11582BB80A0319B90AB3
:1006B000390883160317520283120313031D662B96
:1006C00038088316031751028312031303186B2B88
:1006D000B801B80AB901B701B70A3008033A0319DB
:1006E000772B061A922B3208C83A031D922BB001C1
:1006F00000303902023003193802031C842BB80879
:100700000319B903B803902B8316031751088312FA
:100710000313B80083160317520883120313B9009A
:10072000B701B70A300B522CB0010A168A11732791
:100730000A128A11003803193E2C00300A168A1159
:100740001E260A128A11831603174608F20045086E
:10075000F1001E30F1070318F20A83120313280870
:100760007202031DB52B270871020318382C1D30A7
:10077000C000C1001630C200C30109300A168A1138
:10078000D824270883160317C700831203132808E9
:1007900083160317C8008312031338088316031740
:1007A000C90083120313390883160317CA004808C7
:1007B000F2004708F1004508F102031CF203460865
:1007C000F2020A128A11B527710883120313BA00C4
:1007D0007208BB007308BC00831603174A08F200B6
:1007E0004908F1000A128A11B5277108F40072084D
:1007F000F5007308F600831203133A308400831364
:100800000A128A11F726831203133A088316031774
:10081000CB00831203133B0883160317CC0083120B
:1008200003133C0883160317CD00470883120313F4
:10083000BD0083160317480883120313BE0012304D
:100840000A168A152C213808BD003908BE0014305C
:100850000A168A152C213A08BD003B08BE003C0848
:10086000BF0024300A168A1119270A128A11482C4F
:100870000C30C0000B30C100C200432C1A30C00045
:100880001430C100C201C3011A300A168A11D824DB
:10089000E830CE000330CF007830D000D1010A1606
:1008A0008A11FB2E3208C83A031D632C6430CE0037
:1008B000CF010530D000D1010A168A11FB260A1299
:1008C0008A11C5016F2CE830CE000330CF000A300A
:1008D000D000D1010A168A11FB26C501C50A0530D0
:1008E0000A168A11A5240A128A11082B8301B7015E
:1008F000B708031D892C0A168A119E220A128A1132
:100900000317900111080313C00003171208031303
:10091000942C00300A168A111E2603179001900AA3
:1009200003132708C0002808C1000A168A15E52409
:100930000A128A113008033A0319A22C3008023A2D
:10094000031DCA2CB001B7080319B02CB701C501AB
:10095000C50A05300A168A11A5240A128A11CA2C62
:10096000B701B70A1630C0001930C100C201C20A6F
:10097000C3010A300A168A11D824B001E830CE002B
:100980000330CF006430D000D1010A168A11FB2653
:100990000A128A11300B232DB0010A168A1173270F
:1009A0000A128A11003803190C2D2808803AF10028
:1009B00083307102FC30031927020318E12CA81FB1
:1009C000E72C0C30C0000B30C100C200112D1D30CF
:1009D000C000C1001630C200C30109300A168A11D6
:1009E000D824270883160317C50083120313280889
:1009F00083160317C600450883120313BD00831630
:100A00000317460883120313BE0010300A168A1516
:100A10002C210A128A11162D1A30C0001430C10080
:100A2000C201C3011A300A168A11D824E830CE0058
:100A30000330CF007830D000D1010A168A11FB268E
:100A40000A128A11302DE830CE000330CF00143066
:100A5000D000D1010A168A11FB260A128A11782CBD
:100A6000031790010313080002308301C000C10185
:100A7000C2010A168A11A9200830C000C100C200B4
:100A8000C3010A168A11D824E830CE000330CF0003
:100A90006430D000D1010A168A11FB260530A1006E
:100AA000B601B60A1E30A5000A128A1549200A129C
:100AB0008A11B00803198C2D1E30A5007D2D210848
:100AC0000E3A031D652D05306C2DA10A6F2D2108EE
:100AD000053A031D6E2D0E30A1006F2DA103B60146
:100AE000B60AB0018C2D0230B60021080E3A031D63
:100AF0008C2DB601A101A10A8C2D3008013A0319F1
:100B0000732D033A03195F2D013A0319672DB001C4
:100B1000B601B60A0E30A100360BF92DB601CD2D67
:100B2000C001C101C201C301C30A0030F42D12305B
:100B3000C0000A30C1001330C200C301C30A05302F
:100B4000F42D1930C0000230C100C201C301C30A34
:100B50000430F42D1A30C0000A30C100C201C20AAC
:100B6000F12D1A30C0000A30C1000230F02D0B30D8
:100B7000C0000C30C1000D30F02D0A30C00016301E
:100B8000CA2D0B30C0000C30C1000530F02D1730DD
:100B9000C0000C30C1000B30F02D2108053A0319BC
:100BA000902D033A0319972D013A0319A12D0F3AFD
:100BB0000319AA2D013A0319B12D033A0319B72DD0
:100BC000013A0319BD2D073A0319C12D013A031942
:100BD000C72D033A0E30A100C0011730C1001130FB
:100BE000C200C301C30A1A300A168A11D8240A1295
:100BF0008A113608023A031D4C2EB0012B2E7624A2
:100C0000472E06230A128A11472E0A168A159425A2
:100C10000A128A11472E0A168A153F240A128A11CF
:100C2000472E0A168A1544260A128A11472E0A12DE
:100C30008A117D210A128A11472E0A168A15C623A7
:100C40000A128A11472E0A168A1528220A128A11B8
:100C5000472EEF22472E2108053A0319FF2D033AAC
:100C60000319012E013A0319052E0F3A03190B2E11
:100C7000013A0319112E033A0319172E013A0319E9
:100C80001D2E073A0319232E013A0319292E1E306F
:100C9000A500B601B60AB001A508031D512EA10199
:100CA000A10A210B592D0800840803190034730888
:100CB000800084037208800084037108800000347F
:100CC000F901720D730DF700770803196B2EF90DFA
:100CD000F301F2170800F101F201F3010034F910F9
:100CE000750D760DF800780803197B2E0318F9149A
:100CF000F601F5170800F801F401F501F601080006
:100D0000770803196B2EF213F90C770CF300031814
:100D1000F217542EF708031D9E2EF101F201F30184
:100D2000542E73030319F10A0319F20A0319F30A83
:100D30000310F30CF20CF10CF70A8A2EF308031DD2
:100D4000912E7108720403198D2EF21B802EF70369
:100D500003198D2E0310F10DF20DA52E77087802E0
:100D6000031CBD2E031908000310F30CF20CF10C48
:100D7000F70A77087802B22E0310F60CF50CF40C83
:100D8000F80A7708780603190800BC2E8030F606AA
:100D9000840160266F26AE26791CD62EF109F20951
:100DA000F309F10A0319F20A0319F30AF91CE02EF8
:100DB000F409F509F609F40A0319F50A0319F60A04
:100DC0007408F10775080318750FF2077608031801
:100DD000760FF307F901F31F8A2EF109F209F309DF
:100DE000F10A0319F20A0319F30A79148A2E00088A
:100DF000F100840A0008F200840A0008F300012FC1
:100E0000840160266F26FA01FB01FC01F708031933
:100E100008007808031908007702773EF700790C7C
:100E2000F9061830F6000310FA0DFB0DFC0D7308DF
:100E3000031D222F75087202031D202F74087102F2
:100E4000031C2C2F7408F1027508031C750FF202A5
:100E5000031CF3037A140310F10DF20DF30DF60BDE
:100E6000132F7A08F1007B08F2007C08F3008A2E29
:100E7000840160266F26FA01FB01FC010730F600B1
:100E80000310F50CF40C031C502F7108FA077208BC
:100E90000318720FFB0773080318730FFC07031086
:100EA000F10DF20DF30DF60B402F0930F6005C2F1B
:100EB0000310FC0CFB0CFA0C0310F50CF40C031CD7
:100EC0006B2F7108FA0772080318720FFB0773087B
:100ED0000318730FFC07F60B582F790CF9067A08E4
:100EE000F1007B08F2007C08F3007A307807F707FE
:100EF0008A2E84016026F4018230F707F71B6B2EDF
:100F0000F030F707F71B952F1830770203186B2E78
:100F1000F708031D8E2F7918F2270800F703031036
:100F2000F10DF20DF30DF40D882F0310F30CF20CFC
:100F3000F10CF70F952F8B2FF41FA12F7914F227A7
:100F4000A22FF9018E30F7008401F40803198A2ECC
:100F50000310F40CF30CF20CF10CF70AA52FF301BB
:100F6000F21BF3037308F4009C2FF301F401A12F8B
:100F7000F701F501F60173087404031DC22FF10196
:100F8000F20100341F30F7040310F70AF30DF40DDB
:100F9000031CC52FF40CF30C74087202031DD22F2E
:100FA00073087102031CDA2F7308F1027408031C22
:100FB000740AF202F50DF60DF70BF71ACA2FF71F98
:100FC000E62FF509F50A0319F603F6097508F3008B
:100FD0007608F400771F0034F109F10A0319F203CF
:100FE000F20900340310FF30F107F109031CF20786
:100FF000F209031CF307F309031CF407F4090800C2
:101000008301C000C10007304002031808004008F7
:10101000063A031D0D28051208004008D300D4012C
:10102000D40AE0300A168A11332D8301C000C100B2
:1010300007304002031808004008063A031D222822
:10104000051608004008D300D401D40AC0300A169F
:101050008A11332D8301BA00043015200A128A1533
:10106000033015200A128A15053015200A128A1538
:101070003D2804304728033047283A0803194628FA
:10108000013A03193928033A03193B280530B900FE
:101090000028831603173F08583A031D51280130D2
:1010A0003D2995080319562802303D298B139708CE
:1010B000031D5E289A019B01B43097003F088312FC
:1010C0000313C300FF30C700210B79280317110851
:1010D0000313C800031712080313C9000317980865
:1010E000031975281708083E762817080313C2004D
:1010F0008C281030C200031711080313C80003170F
:1011000012080313C900831603179A019B01831267
:101110001708831699009B01831203134208C40029
:101120004908C5004808C60083160317190883122A
:1011300017060319D628033083161A0283120318E0
:10114000D0280313C001023040020318D028C10187
:10115000053041020318C6284108433E840083132A
:101160000008F3000530F200831603171A080A1668
:101170008A150B210A128A15831203134107A63E12
:101180008400831773088000C10AA82883160317F8
:101190009A0A83120313C00A02304002031CA728D4
:1011A0000317170883169900B430970083169B081D
:1011B0000319DD288B1703303D2983120313C00167
:1011C00005304002831603170318FE289A0883127D
:1011D00003130319F0284008A63E84008317F4285F
:1011E0004008433E840083130008F1004008903E0D
:1011F0008400831771088000C00AE0289B019B0AC5
:10120000B43097008B179A0803193C2983120313F3
:10121000C001C00A831603171A0883120313400281
:1012200003183929C1010530410203183629053058
:10123000F2008312031340080A168A150B21410796
:10124000A63E840083170008F3000530F200400832
:101250000A168A150B210A128A154107FB3EA63E83
:101260008400831773088000C10A132983120313B3
:101270000929831603179A030030830108000A1610
:101280008A1173270A128A15003803195E29C501CD
:101290002C300A168A11D726C50108300A168A1181
:1012A000D7260A128A1506251D30C000C100163047
:1012B000C200C30109300A168A11D824E830CE00D2
:1012C0000330CF007830D000D1010A168A11FB2EEE
:1012D0008301B801B80AB9018316031753088312B2
:1012E0000313B70003179001900A03133008023A62
:1012F000031D8229B001B70A1F3037020318B70156
:10130000B801B80A3008033A031D9029B001B708A4
:1013100003198C29B7038E291E30B700B801B80A0B
:10132000B8080319B0293708C000C1010A168A1588
:10133000E5240A128A15B908031DA129CF01CF0A95
:10134000A3290230CF0004300A168A1197251930DC
:10135000CF0003300A168A1197250A128A15B801A0
:10136000300BDE29B908031DCE2937088316031771
:10137000D300831203133708C5001C300A168A11E4
:10138000D7260A128A15B901B90AB801B80A831614
:101390000317540883120313B700DD293708831697
:1013A0000317D400831203133708C5001E300A1632
:1013B0008A11D7260A128A15EB29B001E830CE002F
:1013C0000330CF000A30D000D1010A168A11FB2663
:1013D0000A128A1575290317900103130800831256
:1013E00003179001900A0F300313C0001930C10099
:1013F000C201C301C30A1A300A168A11D824C001D7
:10140000C101C2010A168A11A9200A128A15300BDD
:10141000072AB0010F30C0001930C1000230C200ED
:10142000C301C30A1A300A168A11D8240230C00038
:10143000C101C2010A168A11A9200A128A15300BAD
:101440001F2AB0010F30C0001930C1000430C200A3
:10145000C301C30A1A300A168A11D8240430C00006
:10146000C101C2010A168A11A9200A128A15300B7D
:10147000372AB0011930C0000230C100C201C301D7
:10148000C30A0F300A168A11D8241430C000C101D3
:10149000C2010A168A11A9200A128A15300B4E2A97
:1014A000B0011930C0000230C100C200C301C30A3C
:1014B0000F300A168A11D8241630C000C101C201AB
:1014C0000A168A11A9200A128A15300B652A0317F9
:1014D00090010313080083160317550883120313A2
:1014E000B70083160317560883120313B800A03001
:1014F000B900BA01BB0103179001900A0313370822
:10150000D2003808D3000A168A15F8213708C0001F
:101510003808C1000A168A15E5240A128A1530080F
:10152000023A0319992A861AB82A3208C83A031DC2
:10153000B82AB001B70A0319B80A043038020030DB
:1015400003193702031CA82A3908B7003A08B80063
:101550003708D2003808D3000A168A15F821370850
:10156000C0003808C1000A168A15E5240A128A1537
:101570003008033A0319C22A061AE02A3208C83A88
:10158000031DE02AB00138083704031DCC2A3908AE
:10159000B7003A08B800D02AB7080319B803B70350
:1015A0003708D2003808D3000A168A15F821370800
:1015B000C0003808C1000A168A15E5240A128A15E7
:1015C000300B482BB001BB08031D302B37088316A6
:1015D0000317D50083120313380883160317D600A8
:1015E000831203133708BD003808BE0020300A16E6
:1015F0008A152C210F30C0000230C100C201C30186
:10160000C30A1A300A168A11D82403300A168A111E
:10161000FC240A128A15300B0B2BBB01BB0A831664
:101620000317570883120313B700831603175808CC
:1016300083120313B8002A30B9000330BA00370808
:10164000D2003808D3000A168A15F8213708C000DE
:101650003808C1000A168A15E5240A128A15472B94
:10166000370883160317D70083120313380883162D
:101670000317D800831203133708BD003808BE00D3
:1016800022300A168A152C210A128A156C2BB001F9
:101690003208C83A031D592B6430CE00CF01053003
:1016A000D000D1010A168A11FB260A128A15C5013B
:1016B000652BE830CE000330CF000A30D000D101D6
:1016C0000A168A11FB26C501C50A05300A168A11B9
:1016D000A5240A128A158F2A031790010313080004
:1016E00002308301C000C101C2010A168A11A9207B
:1016F0000830C000C100C200C3010A168A11D824F4
:10170000E830CE000330CF006430D000D1010A169B
:101710008A11FB260F30A100B601B60AB0011E30B7
:10172000A5000A128A1549200A128A15B008031961
:10173000C92B1E30A500BA2B2108173A031DA22B76
:101740000F30A92BA10AAC2B21080F3A031DAB2B9C
:101750001730A100AC2BA103B601B60AB001C92B0A
:101760000230B6002108173A031DC92BA101A10AB6
:10177000B601C92B3008013A0319B02B033A0319FB
:101780009C2B013A0319A42BB001B601B60A1730FD
:10179000A100360B3C2CB601142C1A30C0000F30BF
:1017A000C1000430C200C301C30A1A300A168A11EC
:1017B000D82402300A168A11FC240A128A153C2CFD
:1017C0001930C0000230C100C200C301C30A00309A
:1017D000372C0B30C0000C30C1000D30332C1330CF
:1017E000C0000F30C1001030C200C301C30A17305F
:1017F000372C0B30C0000A30C1001430332C1630A7
:10180000C000C1011030C200C301C30A0530372C2B
:101810000E30C0001430C1000E30332C1B30C0001D
:101820000A30C1001C30332C21080F3A0319CD2B8C
:101830001F3A0319E02B013A0319E92B033A031964
:10184000EF2B013A0319F92B073A0319FF2B013A41
:101850000319082C033A03190E2C013A1730A10082
:10186000C001C1001130C200C301C30A1A300A16F8
:101870008A11D8240A128A153608023A031D872CC9
:10188000B001642C6B227D2CEF217D2C68217D2CF6
:101890000A168A150A230A128A157D2C0A128A1141
:1018A000D9210A128A157D2C0A168A1563230A1279
:1018B0008A157D2C3F210A128A157D2C0A168A155D
:1018C000B6220A128A157D2C21080F3A0319422CE0
:1018D0001F3A0319442C013A0319462C033A031901
:1018E000482C013A03194E2C073A0319542C013A9B
:1018F00003195A2C033A03195E2C1E30A500B601B9
:10190000B60AB0010A168A155A210A128A15A508C4
:10191000031D8C2CA101A10A210B8F2C0800E8309B
:10192000CE000330CF000A30D000D1010A168A1150
:10193000FB260A128A15962B02308301C000C101D2
:10194000C2010A168A11A9200A168A118D250630AD
:101950000A128A1500200C30C0000D30C1001B3067
:10196000C200C30105300A168A11D824E830CE001F
:101970000330CF009630D000D1010A168A11FB2621
:10198000583083160317DC000230DD000A168A1572
:101990004221E830CE000330CF009630D000D10194
:1019A0000A168A11FB260A128A15A101A10A08004B
:1019B0000A168A118D25C50105300A168A11A5243B
:1019C00003179B019C0103130710051103179701CF
:1019D000980191019201A1010313B301B401B50172
:1019E000B00106300A128A150020831603174F082B
:1019F0000A128A152A200A128A15831603179B01D8
:101A00005830DC000230DD0083010800E83083013B
:101A1000CE000330CF00D001D00AD1010A168A11BE
:101A2000FB2608300A168A118B260A128A15B8007E
:101A3000183A0319882DC50108300A168A11D726CD
:101A4000C5010A300A168A11D7262D30BD00BE0105
:101A500010300A168A152C212030BD000330BE003C
:101A600012300A168A152C216430BD00BE011430D4
:101A70000A168A152C210230C50016300A168A1162
:101A8000D726C501C50A18300A168A11D726643030
:101A9000BD00BE011A300A168A152C211930BD006E
:101AA000BE010C300A168A152C213230BD00BE0151
:101AB0000E300A168A152C21A030BD00BE01203040
:101AC0000A168A152C212A30BD000330BE002230B0
:101AD0000A168A152C21C5011C300A168A11D72630
:101AE000C5011E300A168A11D726BD014030BE003E
:101AF000BF0024300A168A111927C50117300A16AB
:101B00008A11D7261830C50008300A168A11D72640
:101B1000E830CE000330CF000230D000D1010A16E9
:101B20008A11FB260A300A168A118B2683160317A0
:101B3000BF0010300A168A15172171088316031783
:101B4000C5007208C60012300A168A1517217108DE
:101B500083160317C7007208C80014300A168A15C6
:101B60001721710883160317C9007208CA001630BE
:101B70000A168A118B2683160317CE0018300A1610
:101B80008A118B2683160317CF000C300A168A158C
:101B90001721710883160317C1007208C2000E30A6
:101BA0000A168A151721710883160317C3007208D5
:101BB000C4001A300A168A151721710883160317F4
:101BC000D1007208D20020300A168A151721710838
:101BD00083160317D5007208D60022300A168A151C
:101BE0001721710883160317D7007208D800173021
:101BF0000A168A118B2683160317D0001C300A168A
:101C00008A118B2683160317D3001E300A168A11F9
:101C10008B2683160317D40024300A168A11422714
:101C20000A128A15710883160317CB007208CC00BC
:101C30007308CD00830108008301AD01AE01AF013F
:101C4000B001B101B301B401B501031791019201D3
:101C5000930194019A0197019B019C019C0AA001A8
:101C6000A101062583160317C001C00A95019A0138
:101C70008B13EC30831203138F0077308E0001300A
:101C800090000C1083160C140B170A168A15742179
:101C90000A128A1549200A168A155A210A128A152B
:101CA0008B1708008301A201A301A501A50AB700B3
:101CB000583083160317DC000230DD00C92E0A16E7
:101CC0008A1542210A128A15F02E0A168A111B253E
:101CD0000A128A15F02E0A30C0001630C1000B30EF
:101CE000AF2E03179001900A83163F08BD2E1A30BD
:101CF0000313C0000A309F2E831603174108831276
:101D00000313C000831603174208932E1A30C00035
:101D10000A30AD2E83160317430883120313C00045
:101D200083160317440883120313C1000A168A1589
:101D3000E5240A128A15F02E1A30C0000B30C100BB
:101D4000C201C20AB02E03179001900A83165308ED
:101D5000BD2E1A300313C0000B30C1000230C20088
:101D6000C3011A300A168A11D8240A128A15F02ED5
:101D700003179001900A8316540883120313C000BE
:101D8000C1010A168A15E5240A128A150317900163
:101D9000F02E831203133708013A03195F2E033A1A
:101DA0000319652E013A03196B2E073A0319712E98
:101DB000013A0319772E033A03197C2E013A0319CD
:101DC000862E0F3A03198A2E013A03199C2E033AE4
:101DD0000319A32E013A0319A92E073A0319B82EA5
:101DE0000313A50803190800F02E0A168A118D2581
:101DF0000A128A150130522601305226013052262D
:101E00001C260230C000C101C2010A168A11A92095
:101E10000A168A118D2506300A128A1500200A1228
:101E20008A15A201A301B430A50003179001900AFE
:101E30000313B6011E2FA50803193D2F25083606EA
:101E40000319322F2508C000C1010A168A15E5249E
:101E50000A128A152508B600583083160317DC00CD
:101E60000230DD00831203133608AA3A031D3A2F0D
:101E700001306827300B1B2FB00103179001013090
:101E800068270230B6000D30360203180800360805
:101E9000033A03194F2F3608043A031D552F8316B2
:101EA00003173F08583A0319642F093083120313AC
:101EB0003602031C602F83160317C0080319642F12
:101EC000831203133608522683120313B60A432FD4
:101ED0008301C000C00803196F2F07110800071500
:101EE00008008B136400831603130E088312B600D8
:101EF0008B012B308316850084309F00353086009F
:101F0000803087003830831287008501871687115B
:101F100083168117FF30831286008B150608860012
:101F20000B10831601138B100B1664308312810083
:101F30008530831681000B118B168312B61CA42FDB
:101F400083160317DB01A82F83160317DB01DB0AB7
:101F5000033003138E009812831218125830831620
:101F60000317DC000230DD008B17830108007127A6
:101F70000230C000C101C2010A168A11A9200A124A
:101F80008A150030682783160317DB080319CA2F48
:101F9000F526CF2F1C260A128A1501306827A101C9
:101FA000A10AD8240A128A15EB2F0A168A113323A4
:101FB0000A128A15FA2F0A128A1134250A128A1572
:101FC000FA2F0A128A1570230A128A15FA2F9C24F6
:101FD0000A128A15FA2F2108013A0319D52F033A5C
:101FE0000319DB2F013A0319E12F073A0319E72FF1
:101FF000A101A10A0A128A1549200A128A15D12FB5
:102000008301DF00DF0803191028061583168C12E0
:1020100018171810981283121812831698161B2876
:102020008312061183168C16831218171812831642
:102030009812831218168312080083011808DD0015
:102040008C1E27281A08DC001A089A002828DC01B0
:102050005D1C7428DC1F30289C30A0000A30342816
:1020600090300313A00005308316031796008312E7
:1020700003135C084039DE003F30DC055C08831642
:1020800003173F06031D742883120313DE08031988
:1020900064282808803AF100803071020130031969
:1020A0002702031C74282808803AF100833071024B
:1020B000FB30031927020318742803179F08031D18
:1020C00074280313210B7428831603179501950AAE
:1020D0000130002020088400831700089900A00A1E
:1020E000831603179603792883160317950100308A
:1020F0000020831603179801830108008316031339
:10210000981C9B2883120C1E9B2883160317960885
:1021100003199628831203132008840083170008EC
:102120009900A00A8316031796039E2895019B0128
:10213000003000209E2883160317980A0B30831660
:1021400003171802031CA728950100300020830103
:10215000080083014108F2004008F1000A128A11C8
:10216000B5270A168A117108C9007208CA007308D7
:10217000CB0083160317550883120313C50083167B
:102180000317560883120313C60083160317570854
:1021900083120313C700831603175808831203130F
:1021A000C800C20803196C294608F2004508F1006E
:1021B0000A128A11B5277108CC007208CD00730885
:1021C000CE00831603175208F2005108F1000A12DC
:1021D0008A11B527710803138312CF007208D0004B
:1021E0007308D1004808F2004708F1004508F102E1
:1021F000031CF2034608F2020A128A11B5274908A5
:10220000F4004A08F5004B08F6000A128A11382734
:102210004F08F4005008F5005108F6000A128A1120
:1022200000274C08F4004D08F5004E08F6000A128D
:102230008A11C8267108C9007208CA007308CB0049
:102240004908F1004A08F2004B08F3000A128A110B
:1022500079270A168A113829831203134608F200D7
:102260004508F1000310F20CF10C0310F20CF10C14
:102270007108C30072089229831603175508831248
:102280000313C3008316031756084F298316031739
:10229000570883120313C3008316031758088312C9
:1022A000031392294808F2004708F1004508F1029B
:1022B000031CF2034608F2020310F20CF10C0310A7
:1022C000F20CF10C0310F20CF10C47087107C3007B
:1022D00048080318480A91294108F4004008F3000F
:1022E0008129730803192C29023A03198429063A13
:1022F00003193C29103A03194629023A03195229B5
:1023000084297408031971294608F2004508F10070
:102310000310F20CF10C03307107C30000300318F6
:1023200001307207C400831203134308D20044082B
:10233000D3000A168A15F829831203179908031D7A
:10234000B129DB290230AB290130AB2901300A1257
:102350008A15002000300A128A1500200A168A11F8
:10236000BF2903171708013A0319A229033A0319D1
:10237000A229013A0319A429073A0319A629031728
:1023800098080319CD2902300A128A150020063058
:102390000A128A1500200A168A1103179901FA29D0
:1023A0000230D5290130D52900300A128A151520AE
:1023B0000A168A11E92903171708013A0319D029C7
:1023C000033A0319D029013A0319D229073A03190C
:1023D000D429031798080319F72902300A128A151D
:1023E000152006300A128A1515200A168A110317BD
:1023F0009901990A9A08031D2C2A3E2A11080313F1
:10240000C000031712080313C1000A168A15E52439
:10241000031711080313C000031712080313C100A8
:10242000C201C20A0A168A11A9200A168A113C2A78
:102430000313C001C101C2010A168A11A9200C3080
:10244000C0000B30C100C200C3011A300A168A1145
:10245000D8240A168A113C2A031717080319FE29E3
:10246000013A0319182A033A0319182A013A0319E1
:10247000FE29073A0319FE2903179A0103130800DE
:1024800002300A168A111E260A168A112C08803A72
:10249000F10080307102DF3003192B02031703189B
:1024A000542A9801980A632A98080319632A063067
:1024B0000A128A15002002300A128A1515200A16FF
:1024C0008A1103179801031308008301A81F6B2AC0
:1024D000C001C00A9B2A2808803AF10083307102AB
:1024E000FC3003192702031C7A2A0230C0000317AC
:1024F0009F019B2A83160317440883121202031DAF
:10250000852A8316430883121102031C892A04308A
:10251000962A8316420883121202031D932A8316F9
:10252000410883121102031C992A03300313C000CF
:102530009B2A0313C00103134008080000300A1649
:102540008A111E260A168A11031711089300120811
:10255000940083164608F2004508F1000330F107A5
:102560000318F20A8312031328087202031DBA2A01
:10257000270871020318F62A2808F2002708F1003C
:10258000831603174508F102031CF2034608F20202
:102590000A128A11B527710883120313C00072084A
:1025A000C1007308C200831603174B08F4004C08DF
:1025B000F5004D08F60083120313403084008313A6
:1025C0000A128A11F726831203134008F10041080A
:1025D000F2004208F3000A128A1179270A168A11BA
:1025E00071080317910072089200FA2A83120317E8
:1025F000910192018312120883165202031D042BCB
:1026000083121108831651020318162B51088312E6
:102610009100831652088312920003301F020318A0
:10262000132B9F0A182B03309F00182B83129F0136
:1026300013308400831711080006031D222B120893
:10264000840A00060319262B9A019A0A170B292BD4
:102650002C2B1708023A03199F011208F2001108E7
:10266000F100031308008301BB01C001C1010A1678
:102670008A15E524C001C101C201C20A0A168A11E5
:10268000A92003179F01A00140308316D9003830DC
:10269000DA0001300A128A156827E830CE000330CC
:1026A000CF00C830D000D1010A168A11FB2658305D
:1026B00083160317DC000230DD0083120313A1012F
:1026C000A10A0A128A1549200A168A1103171F083F
:1026D000033A031D692CA0080313031D6A2CBB01D8
:1026E000BB0A0317A001A00A9F01692C0230031343
:1026F000BB0000300A128A156827043003179700C0
:102700008316510883120313C0008316031752085F
:1027100083120313C1000A168A15E524C501C50AF0
:1027200005300A168A11A5241630C000C101C20165
:102730000A168A11A9200A168A11762C0317A008F6
:10274000031D762C03300313BB0002300317A000D7
:1027500003130711762C213003172002031C762C5B
:102760000313BB010317A0019F0197010313C501C8
:1027700005300A168A11A5240A168A110317910139
:1027800092019A019A0A031307100511572C031797
:1027900017080313B9009E226522B80039060319F1
:1027A000762CB701031711080313BC000317120896
:1027B0000313BD00B601043036020318F32B9E222A
:1027C0006522BA0038060319B70AE830CE00033094
:1027D000CF000530D000D1010A168A11FB260A1657
:1027E0008A11B60ADB2B03303702031C622C3C082B
:1027F0000317910003133D08031792009A019A0AE8
:102800002E2C0313390B052C202C3908023A0319FE
:10281000202C3908043A0317031D122C9C010313C2
:10282000051103179B08031D4F2C9B019B0A4F2C7E
:102830000313390B1C2C202C3908023A031D252CBC
:102840003908B80003179A014F2C03179B08031D82
:102850002B2C9B019B0A9C019C0A4F2C03133808CC
:1028600003193E2C013A03194F2C033A03194F2C3C
:10287000013A0319012C073A0319182CE830CE004D
:102880000330CF006430D000D1010A168A11FB2634
:10289000031797019B019C010313071005110313F4
:1028A00038080317970002300A128A1515200130E4
:1028B0000A128A15152000300A128A1515200A16E8
:1028C0008A11762C03179A0103133908031797000E
:1028D000762C03133B080319C72B013A0319762BF7
:1028E000033A03199E2B013A0319AB2B40220A1617
:1028F0008A1103179A019A0A9C210A128A15492003
:102900000A168A113308033A031D892C0230A100EC
:1029100008003408063A031D902C0330A10008007B
:102920003508033A031D9F2C0317970803199B2CA6
:102930000313B5019F2C04300313A1000800E830F5
:10294000CE000330CF001430522B8301C700B62CC9
:102950001E30B12C1D30B12C1B30B12C1730B12CD6
:102960000F30C600C92CC601C60AC92C4708031976
:10297000A82C013A0319AA2C033A0319AC2C013AEA
:102980000319AE2C073A0319B02C013A0319B32CE2
:10299000C601C5080319D22C4608D300D401D40AB5
:1029A0008830332D1F30D300D401D40A8830332D22
:1029B0008301C4004208CF00013097250A168A110E
:1029C0004108CF00023097250A168A114008CF002F
:1029D000033097250A168A114408CF000430972542
:1029E0000A168A11C3080319F92CC501C50A053056
:1029F000A52CC5010530A52C8301D000072D0F3073
:102A0000152D1730152D1F30152D2730152D500879
:102A1000013A0319FF2C033A0319012D013A031956
:102A2000032D073A0319052D0730CF00D300D40139
:102A3000D40AE030332D03308301C0000230C100DE
:102A4000C201C20AC3011730D8240A168A11033002
:102A5000FC2C8301DA01DB002E2DDA0A5B085A0216
:102A6000031808002D2D8301D600D9005308D70084
:102A70005408D800871187128B13D50108305502EE
:102A800003185E2D8030F1005508F200F20A4A2D3D
:102A90000310F10CF20B482D710856050319522D45
:102AA0000716532D0712871102302925871502308A
:102AB0002925D50A08305502031C422DD8080319D0
:102AC000822DD501083055020318822D8030F10087
:102AD0005508F200F20A6E2D0310F10CF20B6C2D6A
:102AE000710857050319762D0716772D07128711E0
:102AF00002302925871502302925D50A08305502CC
:102B0000031C662D871187168B1708001F30830161
:102B1000D300D401D40A9830332D8301D301D401DA
:102B2000A430332586250A168A1105120800830170
:102B3000D200A22D9130B02D9230B02D9330B02D17
:102B40009430B02D5208013A03199A2D033A031913
:102B50009C2D013A03199E2D073A0319A02D973099
:102B6000D0004F08F100F2017208183EE40071082D
:102B7000013E0318E40A0A128A1166210A168A1114
:102B8000D100D300D401D40A5008332D8312031787
:102B900010030319022E8316500BDE2D0030831212
:102BA00003134E020A3003194D020318DC2DCF0126
:102BB000023097250A168A110230FF2D831603175B
:102BC0005008023A031D022E0030831203134E02F6
:102BD000643003194D020318FE2D00304E020A30F6
:102BE00003194D02CF010318FA2D023097250A165A
:102BF0008A11CF01033097250A168A110330FC246D
:102C00000A168A11830108008B1383120313C7006D
:102C1000843083169F00122E49308312102E5930B3
:102C20009F00192E8312470803190C2E023A03192C
:102C30000F2E143029251F158B1708008301C4019E
:102C4000C501C301C6003C3043020318522E46089A
:102C500004260A168A111F192B2E46084607273EFE
:102C60008400831383161E08800003148312460D0C
:102C7000273E84001E08800046084607273E840041
:102C80000008F100840A0008F2007108C407031864
:102C9000C50A7208C5070A302925C30A3C30430219
:102CA000031C272E3C30F300F4014508F2004408D1
:102CB000F1000A128A11B8270A168A114608460737
:102CC000273E8400831375088000840A76088000FC
:102CD000830108008301CF000230A6008B13031785
:102CE0008F0103134F0803178D0083168C130C14E8
:102CF00083120C080313CE008B17832E8312031349
:102D0000A6080319872E831603170C187E2E83122C
:102D100003134E0808008301CD006A26CA004D083F
:102D20006A26CB004A06031D972E4A08A02E64305F
:102D3000CE00CF01D001D00AD101FB264D086A2672
:102D4000CC0008008301CB000230A600AC2E831219
:102D50000313A6080319B02E831603178C18A72E89
:102D60008B13831203178F0103134B0803178D0076
:102D700003134A0803178C0083168C130C15553067
:102D80008D00AA308D008C148B1702308312031330
:102D9000A600831603178C1CD22E83120313A608D9
:102DA000031DC92E831603170C118301080083012C
:102DB000C9004508C6004908C8004608CA004808B6
:102DC000A22648088B260A168A11C7004606031950
:102DD00008006430CE00CF010230D000D101FB26C4
:102DE0004608CA004808A2260A30CE00CF01D0010A
:102DF000D00AD101FB2E8301D201D301102FD401BF
:102E0000D50151085502031D072F5008540203181D
:102E10000D2FD40A0319D50A012FD20A0319D30A98
:102E20004F085302031D162F4E08520203180800C4
:102E3000FF2E8301C4003D08C0003E08C1003F08CA
:102E4000C2004008C5004408D7260A168A11410866
:102E5000C500440AD7260A168A114208C50044084C
:102E6000023ED7260A168A114308C5004408033ECD
:102E7000D7260A168A116430CE00CF010530D00063
:102E8000D101FB2E8301C0006430CE00CF0105309C
:102E9000D000D101FB2640088B260A168A11BC00FF
:102EA000400A8B260A168A11BD004008023E8B2676
:102EB0000A168A11BE004008033E8B260A168A11A4
:102EC000BF003C30840083130008B900840A000866
:102ED000BA00840A0008BB003908F1003A08F20081
:102EE0003B08F30008008301BD01BD0A1530C00096
:102EF0000C30C1000530C200C301C30A1A30D82407
:102F00000A168A11E830CE000330CF000A30D00014
:102F1000D101FB263008023A0319922F3008033AF8
:102F2000031DAB2FBD0803199C2FBD011A30C00033
:102F30001430C100C201A42FBD01BD0A1530C0006C
:102F40000C30C1000530C200C301C30A1A30D824B6
:102F50000A168A11B001300B822FBD080319B72F52
:102F60001530C0000C30C1000530C200BC2F1A3033
:102F7000C0001430C100C201C3011A30D8240A169F
:102F80008A11E830CE000330CF00D001D00AD10141
:102F9000FB26B0013D0808008301BD00BD080319F0
:102FA000D52F2D30BA000C30D82F0C30BA002D3070
:102FB000BB00B8011E30380203180800E830CE000C
:102FC0000330CF000230D000D101FB263A08380789
:102FD000B9008B260A168A11BC00E830CE000330F7
:102FE000CF000230D000D101FB263B083807B900E2
:102FF0003C08C5003908D7260A168A11B80ADA2F04
:1030000082077E3430346D34793433345B345F344A
:1030100070347F347B34773405344F340E340634C7
:1030200004340F3446346734153476343B343D343D
:103030003E3480340134003447344E341D34FF3F75
:10304000FF3FFF3FFF3FFF3FFF3FFF3FFF3FFF3F90
:10305000FF3FFF3FFF3FFF3FFF3FFF3FFF3FFF3F80
:10306000FF3FFF3FFF3FFF3FFF3FFF3FFF3FFF3F70
:10307000FF3FFF3FFF3FFF3FFF3FFF3FFF3FFF3F60
:10308000FF3FFF3FFF3FFF3FFF3FFF3FFF3FFF3F50
:10309000FF3FFF3FFF3FFF3FFF3FFF3FFF3FFF3F40
:1030A000FF3FFF3FFF3FFF3FFF3FFF3FFF3FFF3F30
:1030B000FF3FFF3FFF3FFF3FFF3FFF3FFF3FFF3F20
:1030C000FF3FFF3FFF3FFF3FFF3FFF3FFF3FFF3F10
:1030D000FF3FFF3FFF3FFF3FFF3FFF3FFF3FFF3F00
:1030E000FF3FFF3FFF3FFF3FFF3FFF3FFF3FFF3FF0
:1030F000FF3FFF3FFF3FFF3FFF3FFF3FFF3FFF3FE0
:10310000FF3FFF3FFF3FFF3FFF3FFF3FFF3FFF3FCF
:10311000FF3FFF3FFF3FFF3FFF3FFF3FFF3FFF3FBF
:10312000FF3FFF3FFF3FFF3FFF3FFF3FFF3FFF3FAF
:10313000FF3FFF3FFF3FFF3FFF3FFF3FFF3FFF3F9F
:10314000FF3FFF3FFF3FFF3FFF3FFF3FFF3FFF3F8F
:10315000FF3FFF3FFF3FFF3FFF3FFF3FFF3FFF3F7F
:10316000FF3FFF3FFF3FFF3FFF3FFF3FFF3FFF3F6F
:10317000FF3FFF3FFF3FFF3FFF3FFF3FFF3FFF3F5F
:10318000FF3FFF3FFF3FFF3FFF3FFF3FFF3FFF3F4F
:10319000FF3FFF3FFF3FFF3FFF3FFF3FFF3FFF3F3F
:1031A000FF3FFF3FFF3FFF3FFF3FFF3FFF3FFF3F2F
:1031B000FF3FFF3FFF3FFF3FFF3FFF3FFF3FFF3F1F
:1031C000FF3FFF3FFF3FFF3FFF3FFF3FFF3FFF3F0F
:1031D000FF3FFF3FFF3FFF3FFF3FFF3FFF3FFF3FFF
:1031E000FF3FFF3FFF3FFF3FFF3FFF3FFF3FFF3FEF
:1031F000FF3FFF3FFF3FFF3FFF3FFF3FFF3FFF3FDF
:10320000FF3FFF3FFF3FFF3FFF3FFF3FFF3FFF3FCE
:10321000FF3F83010800F1000030721871070310AE
:10322000F10D0310F20CF208031908000D298301B7
:10323000BD000A168A118B26BB003D0A0A168A11A8
:103240008B260A168A15BC003B08B9003C08BA0058
:10325000F2003908F10008008301C300BF00C0017B
:103260003D08C1003E08C2004108C5003F080A16DB
:103270008A11D7260A168A154208C5003F0A0A167F
:103280008A11D72E830105128030B80085303802AC
:10329000031808008830D300D401D40A38080A166D
:1032A0008A1133250A168A15B80A853038020318A0
:1032B00008004A298B13831603173F089C00420815
:1032C0009D0041089E0044089F004308A00052084A
:1032D000A1005108A2004F08A3004E08A400FF302F
:1032E000A5008B178301080083160317950196012B
:1032F00098019A0199019B01673003139900071700
:10330000871745309800C030831298008316061145
:10331000831206118316981283121816080083016F
:10332000B7009A290F30A8291730A8291F30A829DB
:103330002730A8293708013A03199229033A0319BB
:103340009429013A03199629073A03199829073055
:10335000B600D300D401D40AC0300A168A11332D26
:1033600083160317D40883120319D0291C0BC22912
:103370008316540883129E0002309C000313051527
:103380000317C9291C08023A031DCD299E080319F9
:10339000CB299E03D22903309C0003130511D229A7
:1033A000031305150313080083160317D3088312AC
:1033B0000319F4291B0BE6298316530883129D0079
:1033C00002309B00031307140317ED291B08023A70
:1033D000031DF1299D080319EF299D03F6290330E8
:1033E0009B0003130710F6290313071403130800A7
:1033F0008B13831203135208D4005308D5000430F2
:103400005502003003195402031C0B2AFF30D4006C
:103410000330D5000310D50CD40C0310D50CD40CFC
:103420000C30D600521C162A5616172A5612D21CD9
:103430001B2AD6161C2AD61254089B0056089D003B
:10344000FF30831692000530831292008B1708001C
:103450000A168A1173270A168A1500380319592A81
:103460002C300A168A118B26B700C50108300A16BF
:103470008A11D7260A168A153708283A031D4A2AC0
:1034800001300A168A11CC271830C50008300A16F8
:103490008A11D7260A128A1506251D30C000C100E0
:1034A0001630C200C30109300A168A11D8240A1640
:1034B0008A15E830CE000330CF007830D000D1013B
:1034C0000A168A11FB2E83013008033A031D762A5F
:1034D000AE08031D762AB301B30AB501340B732A73
:1034E0000230B400752AB401B40AB001300B942A3A
:1034F000AE08031D942A330B802A0230B300812AC0
:10350000B3013408023A0319892A3408033A031D27
:103510008B2AB40A8C2AB401033035020318922A8C
:10352000B50A932AB501B0013008023A031DB02A4A
:10353000AE08031DB02A3308023A031DA22A033045
:10354000B300A32AB3013408043A0319AB2A3408A0
:10355000053A031DAD2AB40AAE2AB401B001B50183
:10356000310B0800B301B401B50108002C300A1674
:103570008A118B260A168A15B7003708283A1B309D
:10358000C0001930C100031DC72A1530C82A1430E5
:10359000C200C3011A300A168A11D8240A168A15E5
:1035A000300BFD2A0A168A1173270A168A1500386D
:1035B00003190800C5012C300A168A11D7260030DD
:1035C0000A168A11CC272830C5002C300A168A1119
:1035D000D7261D30C000C1001630C200C30109301B
:1035E0000A168A11D824E830CE000330CF00783094
:1035F000D000D1010A168A11FB2EE830CE0003302C
:10360000CF001430D000D1010A168A11FB260A1609
:103610008A15BD2A831203179001900A0313B8017B
:10362000B80A831603174F0883120313B700300834
:10363000023A031D232BB001B70A033037020318E7
:10364000B701B801B80A3008033A031D312BB001A5
:10365000B70803192D2BB7032F2B0230B700B80181
:10366000B80AB8080319412B3708C000C1010A166F
:103670008A15E52437080A128A152A200A168A159F
:10368000B801300B522B370883160317CF00831273
:1036900003133708C50018300A168A11D7260A16F0
:1036A0008A155F2BE830CE000330CF000A30D000FF
:1036B000D1010A168A11FB260A168A15172B031741
:1036C00090010313080017300A168A118B260A1678
:1036D0008A15B7003008023A031D742BB001B70AEF
:1036E000033037020318B7013008033A031D9D2B3E
:1036F000B001B70803197E2BB7039D2B0230B7002A
:103700009D2B1030C0001930C100C201942B103025
:10371000C0001930C100C201C20A942B1030C00091
:103720001930C1000230C200C301C30A05300A16B5
:103730008A11D8240A168A15A62B37080319812B5B
:10374000013A0319872B033A03198E2B300BB72B41
:10375000370883160317D000831203133708C500F8
:1037600017300A168A11D7260A168A15C42BE83094
:10377000CE000330CF000A30D000D1010A168A11E2
:10378000FB260A168A156A2BB0010800831203175C
:103790009001900A83163F0883120313B70037087D
:1037A000C000C1010A168A15E5240A168A153008D8
:1037B000023A0319E12B861AE92B3208C83A031D95
:1037C000E92B40303702031CE72BB701E82BB70A7F
:1037D000B0013008033A0319F32B061AFB2B320809
:1037E000C83A031DFB2BB7080319F82BB703FA2BB4
:1037F0004030B700B001300B0C2C3708831603178C
:10380000BF00831203133708C5000A300A168A1155
:10381000D7260A168A15302C3208C83A031D1D2CEB
:103820006430CE00CF011430D000D1010A168A11C5
:10383000FB260A168A15C501292CE830CE00033074
:10384000CF000A30D000D1010A168A11FB26C5012B
:10385000C50A05300A168A11A5240A168A15CF2B27
:103860000A168A1574210A128A1549200A168A1521
:103870005A210A168A1503179001031308008316AC
:103880000317410883120313B70083160317420876
:1038900083120313B8003708C0003808C1000A16A5
:1038A0008A15E5240A168A153008023A03195E2C97
:1038B000861A852C3208C83A031D852CB001B70A38
:1038C0000319B80A3808831603174402031D6E2C27
:1038D00083120313370883160317430203187A2C45
:1038E000430883120313B700831603174408831297
:1038F0000313B800831203133708C0003808C1004F
:103900000A168A15E5240A168A153008033A03199F
:103910008F2C061AA42C3208C83A031DA42CB0011F
:1039200000303802023003193702031C9B2CB70801
:103930000319B803B7033708C0003808C1000A16D6
:103940008A15E5240A168A15300BC12C3708831610
:103950000317C10083120313380883160317C2002C
:10396000410883120313BD00831603174208831214
:103970000313BE000C300A168A152C210A168A156C
:103980005A293208C83A031DD22C6430CE00CF0128
:103990000530D000D1010A168A11FB260A168A15B5
:1039A000C501DE2CE830CE000330CF000A30D00055
:1039B000D1010A168A11FB26C501C50A05300A166F
:1039C0008A11A5240A168A15542C83014008C500C3
:1039D0004108C600E830C7000330C800C3012730E3
:1039E0004602103003194502031CFA2C0F30C500A3
:1039F0002730C600C40104304402831203130318A5
:103A0000482D4808F4004708F3004608F20045082E
:103A1000F1000A128A11B8270A168A157508C20021
:103A2000C20803191A2DC308031D1E2D8312031388
:103A3000C3011E2D83120313C308031DC30A83127F
:103A400003134408493E8400831342088000480859
:103A5000F4004708F3004508F1004608F2000A1296
:103A60008A11B8277108C5007208C6000A30F30031
:103A7000F4014708F1004808F2000A128A11B82739
:103A80000A168A157508C7007608C800C40AFB2CF8
:103A9000C308031D6D2DD301D401D40A81300A1649
:103AA0008A1133250F30D300D401D40A82300A168C
:103AB0008A1133250F30D300D401D40A83300A167B
:103AC0008A1133250F30D300D401D40A84300A166A
:103AD0008A1133250A168A158D2DC401043044023B
:103AE00003188D2D4308440203187D2D4408033C20
:103AF000493E8400831300087E2D0F30D300D4018B
:103B0000D40A4408813E0A168A1133250A168A15FA
:103B1000C40A04304402031C722D4008CD00410841
:103B2000CE000A168A11C62D8301B701B8013708E5
:103B3000C0003808C100C201C20A0A168A11A920B1
:103B40003708C0003808C1000A168A15E5240A168D
:103B50008A153008023A0319B32D861ADB2D320874
:103B6000C83A031DDB2DB001B70A0319B80A38089B
:103B700083160317520283120313031DC52D370842
:103B8000831603175102831203130318C92DB701BB
:103B9000B8013708C0003808C100C201C20A0A16BD
:103BA0008A11A9203708C0003808C1000A168A15F2
:103BB000E5240A168A153008033A0319E52D061A7A
:103BC0000B2E3208C83A031D0B2EB00138083704FB
:103BD000031DF72D83160317510883120313B70033
:103BE00083160317520883120313B800FB2DB7087E
:103BF0000319B803B7033708C0003808C100C20171
:103C0000C20A0A168A11A9203708C0003808C10064
:103C10000A168A15E524370803179100031338089C
:103C2000031792000A128A1549200A168A15300BCA
:103C30001A2E3E2E3208C83A031D2B2E6430CE00B9
:103C4000CF010530D000D1010A168A11FB260A16D1
:103C50008A15C501372EE830CE000330CF000A3078
:103C6000D000D1010A168A11FB26C501C50A05300C
:103C70000A168A11A5240A168A15A92D031791017F
:103C800092010A128A1549288316031743088312E2
:103C90000313B70083160317440883120313B800F5
:103CA0003708C0003808C1000A168A15E5240A162C
:103CB0008A153008023A0319632E861A8A2E3208B2
:103CC000C83A031D8A2EB001B70A0319B80A38088A
:103CD000831603175202031D732E83120313370832
:103CE00083160317510203187F2E51088312031302
:103CF000B70083160317520883120313B800831208
:103D000003133708C0003808C1000A168A15E524D5
:103D10000A168A153008033A0319942E061ABF2E84
:103D20003208C83A031DBF2EB001380883160317A6
:103D30004202031DA12E83120313370883160317B3
:103D400041020318AA2E83120313B7080319B803FC
:103D5000B703B62E83160317410883120313B70067
:103D600083160317420883120313B8003708C000F4
:103D70003808C1000A168A15E5240A168A15300B80
:103D8000DC2E370883160317C30083120313380889
:103D900083160317C400430883120313BD00831660
:103DA0000317440883120313BE000E300A168A1547
:103DB0002C210A168A155A293208C83A031DED2EFD
:103DC0006430CE00CF010530D000D1010A168A112F
:103DD000FB260A168A15C501F92EE830CE000330FD
:103DE000CF000A30D000D1010A168A11FB26C50186
:103DF000C50A05300A168A11A5240A168A15592EF5
:103E0000FF3FFF3FFF3FFF3FFF3FFF3FFF3FFF3FC2
:103E1000FF3FFF3FFF3FFF3FFF3FFF3FFF3FFF3FB2
:103E2000FF3FFF3FFF3FFF3FFF3FFF3FFF3FFF3FA2
:103E3000FF3FFF3FFF3FFF3FFF3FFF3FFF3FFF3F92
:104210001800FF000000FF0019000000320000003D
:104220002800000066000100640000000200000099
:104230000100FF00640000000000FF000000FF001C
:10424000AB0000005700030085004B004000140045
:10425000FF00FF00FF00FF002800190000003200EF
:104260000000280000006600010064000000020059
:1042700000000100FF00640000000000FF000000DB
:10428000FF00AB0000005700030085004B0040001A
:104290001400FF00FF00FF00FF00FF00FF00FF0011
:1042A000FF00FF00FF00FF00FF00FF00FF00FF0016
:1042B000FF00FF00FF00FF00FF00FF00FF00FF0006
:1042C000FF00FF00FF00FF00FF00FF00FF00FF00F6
:1042D000FF00FF00FF00FF00FF00FF00FF00FF00E6
:1042E000FF00FF00FF00FF00FF00FF00FF00FF00D6
:1042F000FF00FF00FF00FF00FF00FF00FF00FF00C6
:10430000FF00FF00FF00FF00FF00FF00FF00FF00B5
:10431000FF00FF00FF00FF00FF00FF00FF00FF00A5
:10432000FF00FF00FF00FF00FF00FF00FF00FF0095
:10433000FF00FF00FF00FF00FF00FF00FF00FF0085
:10434000FF00FF00FF00FF00FF00FF00FF00FF0075
:10435000FF00FF00FF00FF00FF00FF00FF00FF0065
:10436000FF00FF00FF00FF00FF00FF00FF00FF0055
:10437000FF00FF00FF00FF00FF00FF00FF00FF0045
:10438000FF00FF00FF00FF00FF00FF00FF00FF0035
:10439000FF00FF00FF00FF00FF00FF00FF00FF0025
:1043A000FF00FF00FF00FF00FF00FF00FF00FF0015
:1043B000FF00FF00FF00FF00FF00FF00FF00FF0005
:1043C000FF00FF00FF00FF00FF00FF00FF00FF00F5
:1043D000FF00FF00FF00FF00FF00FF00FF00FF00E5
:1043E000FF00FF00FF00FF00FF00FF00FF00FF00D5
:1043F000FF00FF00FF00FF00FF00FF00FF00FF00C5
:02400E00753FFC
:08400000FF3FFF3FFF3FFF3FC0
:00000001FF
